{
  "contractName": "Faucet",
  "abi": [
    {
      "constant": false,
      "inputs": [
        {
          "name": "erc20",
          "type": "address"
        }
      ],
      "name": "initialize",
      "outputs": [],
      "payable": false,
      "stateMutability": "nonpayable",
      "type": "function"
    },
    {
      "constant": false,
      "inputs": [],
      "name": "gimmeCoins",
      "outputs": [],
      "payable": false,
      "stateMutability": "nonpayable",
      "type": "function"
    }
  ],
  "bytecode": "0x608060405234801561001057600080fd5b50610374806100206000396000f3fe60806040526004361061004c576000357c0100000000000000000000000000000000000000000000000000000000900463ffffffff16806343b8869514610051578063c4d66de814610068575b600080fd5b34801561005d57600080fd5b506100666100b9565b005b34801561007457600080fd5b506100b76004803603602081101561008b57600080fd5b81019080803573ffffffffffffffffffffffffffffffffffffffff1690602001909291905050506101c0565b005b603360009054906101000a900473ffffffffffffffffffffffffffffffffffffffff1673ffffffffffffffffffffffffffffffffffffffff1663a9059cbb33633b9aca006040518363ffffffff167c0100000000000000000000000000000000000000000000000000000000028152600401808373ffffffffffffffffffffffffffffffffffffffff1673ffffffffffffffffffffffffffffffffffffffff16815260200182815260200192505050602060405180830381600087803b15801561018257600080fd5b505af1158015610196573d6000803e3d6000fd5b505050506040513d60208110156101ac57600080fd5b810190808051906020019092919050505050565b600060019054906101000a900460ff16806101df57506101de610337565b5b806101f657506000809054906101000a900460ff16155b1515610290576040517f08c379a000000000000000000000000000000000000000000000000000000000815260040180806020018281038252602e8152602001807f436f6e747261637420696e7374616e63652068617320616c726561647920626581526020017f656e20696e697469616c697a656400000000000000000000000000000000000081525060400191505060405180910390fd5b60008060019054906101000a900460ff1690506001600060016101000a81548160ff02191690831515021790555060016000806101000a81548160ff02191690831515021790555081603360006101000a81548173ffffffffffffffffffffffffffffffffffffffff021916908373ffffffffffffffffffffffffffffffffffffffff16021790555080600060016101000a81548160ff0219169083151502179055505050565b600080303b9050600081149150509056fea165627a7a72305820f5de91a26d3e7f7fcb4c6c3ac2c494e9a0536cd60608a758467feb92b5aa89360029",
  "source": "pragma solidity ^0.5.0;\n\nimport \"zos-lib/contracts/Initializable.sol\";\nimport \"openzeppelin-eth/contracts/token/ERC20/IERC20.sol\";\n\ncontract Faucet is Initializable {\n\n    IERC20 erc20Contract;\n\n    function initialize(address erc20) public initializer {\n        erc20Contract = IERC20(erc20);\n    }\n\n    function gimmeCoins() external {\n        erc20Contract.transfer(msg.sender, 1000000000);\n    }\n\n}",
  "sourcePath": "/Users/wmitsuda/blogs/buidlcoin-faucet/contracts/Faucet.sol",
  "compiler": {
    "name": "solc",
    "version": "0.5.0+commit.1d4f565a.Emscripten.clang"
  },
  "schemaVersion": "3.0.2",
  "updatedAt": "2019-02-28T20:34:29.507Z",
  "devdoc": {
    "methods": {}
  },
  "userdoc": {
    "methods": {}
  }
}